:020000040800F2
:100000000000022069070008E5060008ED06000868
:10001000F5060008FD0600080507000800000000BE
:100020000000000000000000000000000D070008B4
:100030001B07000800000000290700083707000818
:10004000B9070008B9070008B9070008B907000890
:10005000B9070008B9070008B9070008B907000880
:10006000B9070008B9070008B9070008B907000870
:10007000B9070008B9070008B9070008B907000860
:10008000B9070008B9070008B9070008B907000850
:10009000B9070008B9070008B9070008B907000840
:1000A000B9070008B9070008B9070008B907000830
:1000B000B9070008B9070008B9070008B907000820
:1000C000B9070008B9070008B9070008B907000810
:1000D000B9070008B9070008B9070008B907000800
:1000E000B9070008B9070008B9070008B9070008F0
:1000F000B9070008B9070008B9070008B9070008E0
:10010000B9070008B9070008B9070008B9070008CF
:10011000B9070008B9070008B9070008B9070008BF
:10012000B9070008B9070008B9070008B9070008AF
:10013000B90700080000000000000000B90700082F
:10014000B9070008B9070008B9070008B90700088F
:10015000B9070008B9070008B9070008B90700087F
:10016000B9070008B9070008B9070008B90700086F
:10017000B9070008B9070008B90700080000000027
:1001800000000000B90700080000000000000000A7
:10019000B90700080000000000000000B9070008CF
:1001A000000000000000000000000000B907000887
:1001B000B9070008B9070008B9070008B90700081F
:0401C000B907000873
:1001C40010B5054C237833B9044B13B10448AFF38D
:1001D40000800123237010BD0C00002000000000EB
:1001E400C418000808B5034B1BB103490348AFF317
:1001F400008008BD0000000010000020C4180008A2
:1002040053B94AB9002908BF00281CBF4FF0FF3179
:100214004FF0FF3000F06AB9ADF1080C6DE904CE7F
:1002240000F006F8DDF804E0DDE9022304B07047CD
:100234002DE9F047089D0C46002B4ED194468C4581
:100244008646B2FA82F262D94AB1C2F120039140E1
:1002540020FA03F30CFA02FC194300FA02FE4FEAF7
:100264001C471FFA8CF6B1FBF7F44FEA1E4307FB59
:10027400141143EA014304FB06F199420AD91CEB29
:10028400030304F1FF3080F01281994240F20F81A0
:10029400023C6344591A1FFA8EF3B1FBF7F007FBD3
:1002A400101143EA014300FB06F69E420AD91CEBF7
:1002B400030300F1FF3180F0FC809E4240F2F9809C
:1002C400634402389B1B40EA044000211DB1D34023
:1002D4000022C5E90032BDE8F0878B4205D90DB193
:1002E400C5E9000100210846F5E7B3FA83F10029C6
:1002F40046D1A34202D39042C0F0F080861A64EB48
:1003040003030120002DE6D0C5E90063E3E7002ADA
:1003140040F09080A1EB0C044FEA1C481FFA8CF7C4
:100324000121B4FBF8F64FEA1E4308FB164443EAE6
:10033400044307FB06F0984208D91CEB030306F1BB
:10034400FF3402D2984200F2CD8026461C1A1FFACE
:100354008EF3B4FBF8F008FB104443EA044300FBBB
:1003640007F79F4208D91CEB030300F1FF3402D2C4
:100374009F4200F2B0802046DB1B40EA0640A5E71E
:10038400C1F120068B4022FA06F71F4320FA06FC2F
:1003940004FA01F343EA0C03F44000FA01F8380CC0
:1003A4004FEA1349B4FBF0FE1FFA87FC00FB1E441E
:1003B40049EA04440EFB0CF9A14502FA01F20AD9F8
:1003C4003C190EF1FF3A80F08480A14540F281800F
:1003D400AEF1020E3C44A4EB09041FFA83F9B4FB0A
:1003E400F0F300FB134449EA044403FB0CFCA4456A
:1003F40007D93C1903F1FF3067D2A44565D9023B04
:100404003C4443EA0E40A0FB0293A4EB0C049C4240
:10041400CE469C4651D34ED055B1B8EB0E0364EB97
:100424000C0404FA06F6CB401E43CC40C5E9006434
:10043400002150E7C2F1200320FA03F10CFA02FC78
:1004440024FA03F394400C434FEA1C4800FA02FEDA
:100454001FFA8CF7B3FBF8F008FB1031230C43EAC6
:10046400014300FB07F1994208D91CEB030300F197
:10047400FF362CD299422AD9023863445B1AA4B2BB
:10048400B3FBF8F108FB113344EA034401FB07F31F
:10049400A34208D91CEB040401F1FF3613D2A34292
:1004A40011D902396444E41A41EA004139E70446A7
:1004B400F0E6084606E7C845AED2B9EB020E63EB98
:1004C400070C0138A8E73146EDE7034699E73046C3
:1004D400D4E7D6467FE7634402384DE70646234611
:1004E40008460FE7023E634430E700BF704700BF91
:1004F40080B588B000AF07F10C0300221A605A607F
:100504009A60DA601A610023BB60184B1B6B174AB0
:1005140043F080031363154B1B6B03F08003BB6034
:10052400BB6800237B60114B1B6B104A43F0010333
:1005340013630E4B1B6B03F001037B607B6800228B
:1005440020210B4800F048FC2023FB6001233B6181
:1005540000237B610023BB6107F10C0319460448A7
:1005640000F0A6FA00BF2037BD4680BD0038024027
:100574000000024080B500AF00F01EF900F016F84C
:10058400FFF7B6FF01222021074800F025FC642074
:1005940000F084F900222021034800F01DFC6420AF
:1005A40000F07CF900BFEDE70000024080B594B094
:1005B40000AF07F11C0334220021184601F054F95E
:1005C40007F1080300221A605A609A60DA601A611F
:1005D40000237B60294B1B6C284A43F0805313642F
:1005E400264B1B6C03F080537B607B6800233B60CD
:1005F400234B1B68224A43F440431360204B1B687F
:1006040003F440433B603B680123FB614FF48033B8
:100614003B6202237B634FF48003BB631023FB63C1
:10062400C0233B6402237B640223BB640223FB6478
:1006340007F11C03184600F079FE0346002B01D095
:1006440000F020F80F23BB600223FB6000233B6112
:100654004FF4A0537B614FF48053BB6107F108034F
:100664000421184600F0D2FB0346002B01D000F011
:1006740009F800BF5037BD4680BD00BF00380240B6
:100684000070004080B400AF72B600BF00BFFDE749
:1006940080B483B000AF00237B60104B5B6C0F4AC7
:1006A40043F4804353640D4B5B6C03F480437B60E1
:1006B4007B6800233B60094B1B6C084A43F0805362
:1006C4001364064B1B6C03F080533B603B6800BF14
:1006D4000C37BD465DF8047B704700BF003802400C
:1006E40080B400AF00BFFDE780B400AF00BFFDE7FA
:1006F40080B400AF00BFFDE780B400AF00BFFDE7EA
:1007040080B400AF00BFFDE780B400AF00BFBD46BA
:100714005DF8047B704780B400AF00BFBD465DF850
:10072400047B704780B400AF00BFBD465DF8047B16
:10073400704780B500AF00F091F800BF80BD0000A5
:1007440080B400AF064BD3F88830054A43F47003F5
:10075400C2F8883000BFBD465DF8047B704700BF17
:1007640000ED00E0DFF834D0FFF7EAFF0C480D4954
:100774000D4A002302E0D458C4500433C4188C42F8
:10078400F9D30A4A0A4C002301E013600432A2425E
:10079400FBD301F071F8FFF7EDFE70470000022073
:1007A400000000200C000020FC1800080C000020B1
:1007B4002C000020FEE7000080B500AF0E4B1B6844
:1007C4000D4A43F4007313600B4B1B680A4A43F44D
:1007D40080631360084B1B68074A43F480731360FB
:1007E400032000F031F90F2000F008F8FFF750FF64
:1007F4000023184680BD00BF003C024080B582B093
:1008040000AF7860124B1A68124B1B7819464FF4EC
:100814007A73B3FBF1F3B2FBF3F3184600F03BF940
:100824000346002B01D001230EE07B680F2B0AD86E
:10083400002279684FF0FF3000F011F9064A7B6816
:100844001360002300E0012318460837BD4680BD2D
:1008540000000020080000200400002080B400AF45
:10086400064B1B781A46064B1B681344044A136054
:1008740000BFBD465DF8047B704700BF0800002040
:100884002800002080B400AF034B1B681846BD4607
:100894005DF8047B704700BF2800002080B584B059
:1008A40000AF7860FFF7EEFFB8607B68FB60FB6821
:1008B400B3F1FF3F05D00A4B1B781A46FB6813447B
:1008C400FB6000BFFFF7DEFF0246BB68D31AFA687D
:1008D4009A42F7D800BF00BF1037BD4680BD00BFA5
:1008E4000800002080B485B000AF78607B6803F016
:1008F4000703FB600C4BDB68BB60BA684FF6FF0371
:100904001340BB60FB681A02BB68134343F0BF6328
:1009140043F40033BB60044ABB68D36000BF1437A0
:10092400BD465DF8047B704700ED00E080B400AF85
:10093400044BDB681B0A03F007031846BD465DF849
:10094400047B704700ED00E080B483B000AF034641
:100954003960FB7197F90730002B0ADB3B68DAB288
:100964000C4997F907301201D2B20B4483F80023E3
:100974000AE03B68DAB20849FB7903F00F03043B51
:100984001201D2B20B441A7600BF0C37BD465DF893
:10099400047B704700E100E000ED00E080B489B022
:1009A40000AFF860B9607A60FB6803F00703FB618D
:1009B400FB69C3F10703042B28BF0423BB61FB6954
:1009C4000433062B02D9FB69033B00E000237B615F
:1009D4004FF0FF32BB6902FA03F3DA43BB681A40F3
:1009E4007B699A404FF0FF317B6901FA03F3D943E5
:1009F4007B680B40134318462437BD465DF8047BDF
:100A04007047000080B582B000AF78607B68013B1E
:100A1400B3F1807F01D301230FE00A4A7B68013BD5
:100A240053600F214FF0FF30FFF78EFF054B00227C
:100A34009A60044B07221A60002318460837BD4603
:100A440080BD00BF10E000E080B582B000AF7860E8
:100A54007868FFF747FF00BF0837BD4680BD80B503
:100A640086B000AF0346B9607A60FB7300237B61F4
:100A7400FFF75CFF78617A68B9687869FFF78EFFE1
:100A8400024697F90F3011461846FFF75DFF00BF85
:100A94001837BD4680BD80B582B000AF78607868F5
:100AA400FFF7B0FF034618460837BD4680BD000077
:100AB40080B489B000AF7860396000237B61002383
:100AC4003B610023BB610023FB6165E10122FB69FB
:100AD40002FA03F37B613B681B687A6913403B614C
:100AE4003A697B699A4240F054813B685B6803F041
:100AF4000303012B05D03B685B6803F00303022B5F
:100B040030D17B689B68BB61FB695B00032202FAFE
:100B140003F3DB43BA691340BB613B68DA68FB69E2
:100B24005B0002FA03F3BA691343BB617B68BA69D9
:100B34009A607B685B68BB610122FB6902FA03F37C
:100B4400DB43BA691340BB613B685B681B0903F074
:100B54000102FB6902FA03F3BA691343BB617B68C0
:100B6400BA695A603B685B6803F00303032B17D030
:100B74007B68DB68BB61FB695B00032202FA03F359
:100B8400DB43BA691340BB613B689A68FB695B004D
:100B940002FA03F3BA691343BB617B68BA69DA608A
:100BA4003B685B6803F00303022B23D1FB69DA087B
:100BB4007B68083253F82230BB61FB6903F00703FA
:100BC4009B000F2202FA03F3DB43BA691340BB61B3
:100BD4003B681A69FB6903F007039B0002FA03F3FD
:100BE400BA691343BB61FB69DA087B680832B969E7
:100BF40043F822107B681B68BB61FB695B0003221E
:100C040002FA03F3DB43BA691340BB613B685B68D8
:100C140003F00302FB695B0002FA03F3BA691343AE
:100C2400BB617B68BA691A603B685B6803F4403354
:100C3400002B00F0AE800023FB605D4B5B6C5C4AD4
:100C440043F4804353645A4B5B6C03F48043FB606E
:100C5400FB68584AFB699B08023352F82330BB6196
:100C6400FB6903F003039B000F2202FA03F3DB4347
:100C7400BA691340BB617B684F4A934225D07B68B5
:100C84004E4A93421FD07B684D4A934219D07B68E9
:100C94004C4A934213D07B684B4A93420DD07B68F5
:100CA4004A4A934207D07B68494A934201D10623BA
:100CB4000CE007230AE0052308E0042306E00323ED
:100CC40004E0022302E0012300E00023FA6902F0B9
:100CD400030292009340BA691343BB613549FB692F
:100CE4009B080233BA6941F823203A4B9B68BB61E5
:100CF4003B69DB43BA691340BB613B685B6803F43F
:100D04008013002B03D0BA693B691343BB61314A9A
:100D1400BB6993602F4BDB68BB613B69DB43BA69FA
:100D24001340BB613B685B6803F40013002B03D0E2
:100D3400BA693B691343BB61264ABB69D360254B3F
:100D44005B68BB613B69DB43BA691340BB613B68C9
:100D54005B6803F40033002B03D0BA693B69134387
:100D6400BB611C4ABB6953601A4B1B68BB613B697E
:100D7400DB43BA691340BB613B685B6803F48033AF
:100D8400002B03D0BA693B691343BB61114ABB69A9
:100D94001360FB690133FB61FB690F2B7FF696AE91
:100DA40000BF00BF2437BD465DF8047B704700BF19
:100DB40000380240003801400000024000040240B4
:100DC40000080240000C02400010024000140240DF
:100DD40000180240003C014080B483B000AF78604A
:100DE4000B467B8013467B707B78002B03D07A887C
:100DF4007B689A6103E07B881A047B689A6100BF70
:100E04000C37BD465DF8047B7047000080B584B0A4
:100E140000AF786039607B68002B01D10123CCE0FE
:100E2400684B1B6803F00F033A689A420CD9654B70
:100E34003A68D2B21A70634B1B6803F00F033A6826
:100E44009A4201D00123B8E07B681B6803F00203D7
:100E5400002B20D07B681B6803F00403002B05D013
:100E6400594B9B68584A43F4E05393607B681B6872
:100E740003F00803002B05D0534B9B68524A43F4FC
:100E840060439360504B9B6823F0F0027B689B683F
:100E94004D4913438B607B681B6803F00103002BEF
:100EA40044D07B685B68012B07D1474B1B6803F474
:100EB4000033002B19D101237FE07B685B68022B90
:100EC40003D07B685B68032B07D13F4B1B6803F09F
:100ED4000073002B09D101236FE03B4B1B6803F027
:100EE4000203002B01D1012367E0374B9B6823F0F9
:100EF40003027B685B68344913438B60FFF7C2FCD1
:100F0400F8600AE0FFF7BEFC0246FB68D31A41F220
:100F14008832934201D903234FE02B4B9B6803F0A3
:100F24000C027B685B689B009A42EBD1254B1B68E3
:100F340003F00F033A689A420CD2224B3A68D2B2B9
:100F44001A70204B1B6803F00F033A689A4201D0D1
:100F5400012332E07B681B6803F00403002B08D0F4
:100F6400194B9B6823F4E0527B68DB6816491343F2
:100F74008B607B681B6803F00803002B09D0124BBD
:100F84009B6823F460427B681B69DB000E491343B2
:100F94008B6000F021F802460B4B9B681B0903F0A1
:100FA4000F030A49CB5C22FA03F3094A1360094B85
:100FB4001B681846FFF722FC002318461037BD466D
:100FC40080BD00BF003C024000380240DC1800082D
:100FD40000000020040000202DE9B04FA6B000AFAF
:100FE4000023C7F88C300023C7F894300023C7F8D7
:100FF40088300023C7F884300023C7F89030C84BEA
:101004009B6803F00C030C2B00F27E8101A252F8C2
:1010140023F000BF4D1000080D1300080D13000845
:101024000D130008551000080D1300080D130008D7
:101034000D1300085D1000080D1300080D130008BF
:101044000D130008C7110008B64BC7F890305FE1D4
:10105400B54BC7F890305BE1B14B5B6803F03F03DD
:10106400C7F88C30AE4B5B6803F48003002B31D09F
:10107400AB4B5B689B090022BB66FA66BB6EC3F38D
:1010840008033B6600237B66A74BD7E918452A462D
:1010940003FB02F20023214601FB03F31344A24A9B
:1010A4002146A1FB0212FA670A46BA67FA6F134493
:1010B400FB67D7F88C300022BB65FA65D7E91623A5
:1010C400D7E91E01FFF79CF802460B461346C7F802
:1010D400943064E0924B5B689B0900223B657A651F
:1010E4003B6DC3F30803BB640023FB64D7E91245DB
:1010F40022462B464FF000004FF00001590141EA0F
:10110400D261500102460B462146511A39612946E3
:1011140063EB01037B614FF000024FF00003D7E95A
:1011240004AB59468B01514643EA916351468A0107
:101134005146B2EB0108594663EB01094FF0000236
:101144004FF000034FEAC90343EA58734FEAC80259
:1011540090469946234618EB0303BB602B4649EBA4
:101164000303FB604FF000024FF00003D7E9024590
:1011740029468B02214643EA915321468A021046AE
:101184001946D7F88C3000223B647A64D7E91023DF
:10119400FFF736F802460B461346C7F89430604B07
:1011A4005B681B0C03F0030301335B00C7F8883052
:1011B400D7F89420D7F88830B2FBF3F3C7F890300F
:1011C400A6E0574B5B6803F03F03C7F88C30544BE1
:1011D4005B6803F48003002B2AD0514B5B689B09A6
:1011E4000022BB63FA63BB6BC3F3080000214E4BC0
:1011F40003FB01F2002300FB03F313444A4AA0FB60
:1012040002127A670A463A677A6F13447B67D7F803
:101214008C3000223B637A63D7E90C23D7E91C01A5
:10122400FEF7EEFF02460B461346C7F894305BE028
:101234003B4B5B689B090022BB62FA62BB6AC3F347
:1012440008033B6200237B62D7E9088942464B4688
:101254004FF000004FF00001590141EAD261500102
:1012640002460B464146B2EB010A494663EB010BC9
:101274004FF000024FF000034FEA8B1343EA9A63E6
:101284004FEA8A12B2EB0A0463EB0B054FF000023B
:101294004FF00003EB0043EA5473E20014461D468A
:1012A4004346E3183B604B4645EB03037B604FF03A
:1012B40000024FF00003D7E9004529468B0221467E
:1012C40043EA915321468A0210461946D7F88C30D6
:1012D4000022BB61FA61D7E90623FEF791FF0246BB
:1012E4000B461346C7F894300D4B5B681B0F03F095
:1012F4000703C7F88430D7F89420D7F88430B2FBBA
:10130400F3F3C7F8903003E0064BC7F8903000BF02
:10131400D7F8903018469837BD46BDE8B08F00BF67
:10132400003802400024F40040787D0180B586B086
:1013340000AF78607B68002B01D101238DE27B68CC
:101344001B6803F00103002B00F08380944B9B681F
:1013540003F00C03042B19D0914B9B6803F00C038E
:10136400082B06D18E4B5B6803F48003B3F5800F22
:101374000CD08B4B9B6803F00C030C2B12D1884BC5
:101384005B6803F48003B3F5800F0BD1844B1B68B7
:1013940003F40033002B5BD07B685B68002B57D1D0
:1013A40001235AE27B685B68B3F5803F06D17C4B2E
:1013B4001B687B4A43F4803313601DE07B685B68E1
:1013C400B3F5A02F0CD1764B1B68754A43F48023E8
:1013D4001360734B1B68724A43F4803313600BE051
:1013E4006F4B1B686E4A23F4803313606C4B1B688D
:1013F4006B4A23F4802313607B685B68002B13D053
:10140400FFF740FA386108E0FFF73CFA02463B690F
:10141400D31A642B01D903231FE2614B1B6803F425
:101424000033002BF0D014E0FFF72CFA386108E009
:10143400FFF728FA02463B69D31A642B01D9032328
:101444000BE2574B1B6803F40033002BF0D100E090
:1014540000BF7B681B6803F00203002B6FD0504B66
:101464009B6803F00C03002B17D04D4B9B6803F0D3
:101474000C03082B05D14A4B5B6803F48003002B53
:101484000BD0474B9B6803F00C030C2B1CD1444B33
:101494005B6803F48003002B16D1414B1B6803F0F7
:1014A4000203002B05D07B68DB68012B01D00123EC
:1014B400D3E13B4B1B6823F0F8027B681B69DB001C
:1014C400374913430B603AE07B68DB68002B20D07C
:1014D400344B01221A60FFF7D5F9386108E0FFF7B1
:1014E400D1F902463B69D31A022B01D90323B4E193
:1014F4002B4B1B6803F00203002BF0D0284B1B6816
:1015040023F0F8027B681B69DB00254913430B6059
:1015140015E0244B00221A60FFF7B4F9386108E0A3
:10152400FFF7B0F902463B69D31A022B01D9032312
:1015340093E11B4B1B6803F00203002BF0D17B6883
:101544001B6803F00803002B36D07B685B69002B13
:1015540016D0154B01221A60FFF794F9386108E0A0
:10156400FFF790F902463B69D31A022B01D90323F2
:1015740073E10B4B5B6F03F00203002BF0D01BE015
:10158400094B00221A60FFF77DF938610EE0FFF77E
:1015940079F902463B69D31A022B07D903235CE18C
:1015A4000038024000004742800E47428A4B5B6F7E
:1015B40003F00203002BEAD17B681B6803F00403E9
:1015C400002B00F097800023FB75834B1B6C03F00A
:1015D4008053002B0FD10023BB607F4B1B6C7E4AD2
:1015E40043F0805313647C4B1B6C03F08053BB604B
:1015F400BB680123FB75794B1B6803F48073002BD4
:1016040018D1764B1B68754A43F480731360FFF757
:1016140039F9386108E0FFF735F902463B69D31A16
:10162400022B01D9032318E16C4B1B6803F480736C
:10163400002BF0D07B689B68012B06D1664B1B6F97
:10164400654A43F0010313671CE07B689B68052B24
:101654000CD1614B1B6F604A43F0040313675E4B6C
:101664001B6F5D4A43F0010313670BE05A4B1B6F7A
:10167400594A23F001031367574B1B6F564A23F053
:10168400040313677B689B68002B15D0FFF7FAF8F7
:1016940038610AE0FFF7F6F802463B69D31A41F2D3
:1016A4008832934201D90323D7E04B4B1B6F03F0DD
:1016B4000203002BEED014E0FFF7E4F838610AE0EF
:1016C400FFF7E0F802463B69D31A41F288329342AD
:1016D40001D90323C1E0404B1B6F03F00203002B2D
:1016E400EED1FB7D012B05D13B4B1B6C3A4A23F019
:1016F400805313647B689B69002B00F0AD80364BEC
:101704009B6803F00C03082B60D07B689B69022B59
:1017140045D1334B00221A60FFF7B4F8386108E072
:10172400FFF7B0F802463B69D31A022B01D9032311
:1017340093E0294B1B6803F00073002BF0D17B6806
:10174400DA697B681B6A1A437B685B6A9B011A43EC
:101754007B689B6A5B08013B1B041A437B68DB6A5A
:101764001B061A437B681B6B1B071B4913434B6007
:101774001B4B01221A60FFF785F8386108E0FFF778
:1017840081F802463B69D31A022B01D9032364E092
:10179400114B1B6803F00073002BF0D05CE0104B7E
:1017A40000221A60FFF76EF8386108E0FFF76AF864
:1017B40002463B69D31A022B01D903234DE0064BA1
:1017C4001B6803F00073002BF0D145E07B689B6934
:1017D400012B07D1012340E0003802400070004093
:1017E400600047421F4B5B68FB607B689B69012B71
:1017F40030D0FB6803F480027B68DB699A4229D10C
:10180400FB6803F03F027B681B6A9A4222D1FA68A4
:1018140047F6C07313407A68526A9201934219D111
:10182400FB6803F440327B689B6A5B08013B1B0442
:101834009A420FD1FB6803F070627B68DB6A1B0677
:101844009A4207D1FB6803F0E0427B681B6B1B07DD
:101854009A4201D0012300E0002318461837BD4600
:1018640080BD00BF0038024002440346934200D1C9
:10187400704703F8011BF9E770B50D4D0D4C641B5F
:10188400A4100026A64209D10B4D0C4C00F018F808
:10189400641BA4100026A64205D170BD55F8043B74
:1018A40098470136EEE755F8043B98470136F2E7CE
:1018B400F4180008F4180008F4180008F8180008D0
:1018C400F8B500BFF8BC08BC9E467047F8B500BF29
:0818D400F8BC08BC9E467047F9
:1018DC0000000000000000000102030406070809D4
:0818EC0048E9FF7F0100000044
:0418F400E9010008FE
:0418F800C50100081E
:0C18FC000024F4001000000001000000B7
:04000005080007697F
:00000001FF
